{
  "_format": "hh-sol-artifact-1",
  "contractName": "MyEpicNFT",
  "sourceName": "contracts/MyEpicNFT.sol",
  "abi": [
    {
      "inputs": [],
      "stateMutability": "nonpayable",
      "type": "constructor"
    },
    {
      "anonymous": false,
      "inputs": [
        {
          "indexed": true,
          "internalType": "address",
          "name": "owner",
          "type": "address"
        },
        {
          "indexed": true,
          "internalType": "address",
          "name": "approved",
          "type": "address"
        },
        {
          "indexed": true,
          "internalType": "uint256",
          "name": "tokenId",
          "type": "uint256"
        }
      ],
      "name": "Approval",
      "type": "event"
    },
    {
      "anonymous": false,
      "inputs": [
        {
          "indexed": true,
          "internalType": "address",
          "name": "owner",
          "type": "address"
        },
        {
          "indexed": true,
          "internalType": "address",
          "name": "operator",
          "type": "address"
        },
        {
          "indexed": false,
          "internalType": "bool",
          "name": "approved",
          "type": "bool"
        }
      ],
      "name": "ApprovalForAll",
      "type": "event"
    },
    {
      "anonymous": false,
      "inputs": [
        {
          "indexed": false,
          "internalType": "address",
          "name": "sender",
          "type": "address"
        },
        {
          "indexed": false,
          "internalType": "uint256",
          "name": "tokenId",
          "type": "uint256"
        }
      ],
      "name": "NewEpicNFTMinted",
      "type": "event"
    },
    {
      "anonymous": false,
      "inputs": [
        {
          "indexed": true,
          "internalType": "address",
          "name": "from",
          "type": "address"
        },
        {
          "indexed": true,
          "internalType": "address",
          "name": "to",
          "type": "address"
        },
        {
          "indexed": true,
          "internalType": "uint256",
          "name": "tokenId",
          "type": "uint256"
        }
      ],
      "name": "Transfer",
      "type": "event"
    },
    {
      "inputs": [
        {
          "internalType": "address",
          "name": "to",
          "type": "address"
        },
        {
          "internalType": "uint256",
          "name": "tokenId",
          "type": "uint256"
        }
      ],
      "name": "approve",
      "outputs": [],
      "stateMutability": "nonpayable",
      "type": "function"
    },
    {
      "inputs": [
        {
          "internalType": "address",
          "name": "owner",
          "type": "address"
        }
      ],
      "name": "balanceOf",
      "outputs": [
        {
          "internalType": "uint256",
          "name": "",
          "type": "uint256"
        }
      ],
      "stateMutability": "view",
      "type": "function"
    },
    {
      "inputs": [
        {
          "internalType": "uint256",
          "name": "tokenId",
          "type": "uint256"
        }
      ],
      "name": "getApproved",
      "outputs": [
        {
          "internalType": "address",
          "name": "",
          "type": "address"
        }
      ],
      "stateMutability": "view",
      "type": "function"
    },
    {
      "inputs": [],
      "name": "getNumberOfMintedNFTs",
      "outputs": [
        {
          "internalType": "uint256",
          "name": "",
          "type": "uint256"
        },
        {
          "internalType": "uint256",
          "name": "",
          "type": "uint256"
        }
      ],
      "stateMutability": "view",
      "type": "function"
    },
    {
      "inputs": [
        {
          "internalType": "address",
          "name": "owner",
          "type": "address"
        },
        {
          "internalType": "address",
          "name": "operator",
          "type": "address"
        }
      ],
      "name": "isApprovedForAll",
      "outputs": [
        {
          "internalType": "bool",
          "name": "",
          "type": "bool"
        }
      ],
      "stateMutability": "view",
      "type": "function"
    },
    {
      "inputs": [],
      "name": "makeAnEpicNFT",
      "outputs": [],
      "stateMutability": "nonpayable",
      "type": "function"
    },
    {
      "inputs": [],
      "name": "name",
      "outputs": [
        {
          "internalType": "string",
          "name": "",
          "type": "string"
        }
      ],
      "stateMutability": "view",
      "type": "function"
    },
    {
      "inputs": [
        {
          "internalType": "uint256",
          "name": "tokenId",
          "type": "uint256"
        }
      ],
      "name": "ownerOf",
      "outputs": [
        {
          "internalType": "address",
          "name": "",
          "type": "address"
        }
      ],
      "stateMutability": "view",
      "type": "function"
    },
    {
      "inputs": [
        {
          "internalType": "uint256",
          "name": "tokenId",
          "type": "uint256"
        }
      ],
      "name": "pickRandomFirstWord",
      "outputs": [
        {
          "internalType": "string",
          "name": "",
          "type": "string"
        }
      ],
      "stateMutability": "view",
      "type": "function"
    },
    {
      "inputs": [
        {
          "internalType": "uint256",
          "name": "tokenId",
          "type": "uint256"
        }
      ],
      "name": "pickRandomSecondWord",
      "outputs": [
        {
          "internalType": "string",
          "name": "",
          "type": "string"
        }
      ],
      "stateMutability": "view",
      "type": "function"
    },
    {
      "inputs": [
        {
          "internalType": "uint256",
          "name": "tokenId",
          "type": "uint256"
        }
      ],
      "name": "pickRandomThirdWord",
      "outputs": [
        {
          "internalType": "string",
          "name": "",
          "type": "string"
        }
      ],
      "stateMutability": "view",
      "type": "function"
    },
    {
      "inputs": [
        {
          "internalType": "address",
          "name": "from",
          "type": "address"
        },
        {
          "internalType": "address",
          "name": "to",
          "type": "address"
        },
        {
          "internalType": "uint256",
          "name": "tokenId",
          "type": "uint256"
        }
      ],
      "name": "safeTransferFrom",
      "outputs": [],
      "stateMutability": "nonpayable",
      "type": "function"
    },
    {
      "inputs": [
        {
          "internalType": "address",
          "name": "from",
          "type": "address"
        },
        {
          "internalType": "address",
          "name": "to",
          "type": "address"
        },
        {
          "internalType": "uint256",
          "name": "tokenId",
          "type": "uint256"
        },
        {
          "internalType": "bytes",
          "name": "_data",
          "type": "bytes"
        }
      ],
      "name": "safeTransferFrom",
      "outputs": [],
      "stateMutability": "nonpayable",
      "type": "function"
    },
    {
      "inputs": [
        {
          "internalType": "address",
          "name": "operator",
          "type": "address"
        },
        {
          "internalType": "bool",
          "name": "approved",
          "type": "bool"
        }
      ],
      "name": "setApprovalForAll",
      "outputs": [],
      "stateMutability": "nonpayable",
      "type": "function"
    },
    {
      "inputs": [
        {
          "internalType": "bytes4",
          "name": "interfaceId",
          "type": "bytes4"
        }
      ],
      "name": "supportsInterface",
      "outputs": [
        {
          "internalType": "bool",
          "name": "",
          "type": "bool"
        }
      ],
      "stateMutability": "view",
      "type": "function"
    },
    {
      "inputs": [],
      "name": "symbol",
      "outputs": [
        {
          "internalType": "string",
          "name": "",
          "type": "string"
        }
      ],
      "stateMutability": "view",
      "type": "function"
    },
    {
      "inputs": [
        {
          "internalType": "uint256",
          "name": "tokenId",
          "type": "uint256"
        }
      ],
      "name": "tokenURI",
      "outputs": [
        {
          "internalType": "string",
          "name": "",
          "type": "string"
        }
      ],
      "stateMutability": "view",
      "type": "function"
    },
    {
      "inputs": [
        {
          "internalType": "address",
          "name": "from",
          "type": "address"
        },
        {
          "internalType": "address",
          "name": "to",
          "type": "address"
        },
        {
          "internalType": "uint256",
          "name": "tokenId",
          "type": "uint256"
        }
      ],
      "name": "transferFrom",
      "outputs": [],
      "stateMutability": "nonpayable",
      "type": "function"
    }
  ],
  "bytecode": "0x6080604052606460085560405180610160016040528061012f81526020016200492961012f9139600990805190602001906200003d92919062000cbf565b50604051806101e001604052806040518060400160405280600581526020017f537570657200000000000000000000000000000000000000000000000000000081525081526020016040518060400160405280600481526020017f57696c640000000000000000000000000000000000000000000000000000000081525081526020016040518060400160405280600781526020017f417765736f6d650000000000000000000000000000000000000000000000000081525081526020016040518060400160405280600981526020017f4d617276656c6f7573000000000000000000000000000000000000000000000081525081526020016040518060400160405280600581526020017f4372617a7900000000000000000000000000000000000000000000000000000081525081526020016040518060400160405280600781526020017f416d617a696e670000000000000000000000000000000000000000000000000081525081526020016040518060400160405280600781526020017f437572696f75730000000000000000000000000000000000000000000000000081525081526020016040518060400160405280600781526020017f537472616e67650000000000000000000000000000000000000000000000000081525081526020016040518060400160405280600581526020017f427261766500000000000000000000000000000000000000000000000000000081525081526020016040518060400160405280600581526020017f46756e6b7900000000000000000000000000000000000000000000000000000081525081526020016040518060400160405280600781526020017f4665617266756c0000000000000000000000000000000000000000000000000081525081526020016040518060400160405280600881526020017f41646f7261626c6500000000000000000000000000000000000000000000000081525081526020016040518060400160405280600581526020017f53696c6c7900000000000000000000000000000000000000000000000000000081525081526020016040518060400160405280600a81526020017f48696c6c6172696f75730000000000000000000000000000000000000000000081525081526020016040518060400160405280600881526020017f467269656e646c79000000000000000000000000000000000000000000000000815250815250600a90600f620003cf92919062000d50565b50604051806101e001604052806040518060400160405280600781526020017f56616e696c6c610000000000000000000000000000000000000000000000000081525081526020016040518060400160405280600981526020017f43686f636f6c617465000000000000000000000000000000000000000000000081525081526020016040518060400160405280600a81526020017f537472617762657272790000000000000000000000000000000000000000000081525081526020016040518060400160405280600a81526020017f4e6561706f6c6974616e0000000000000000000000000000000000000000000081525081526020016040518060400160405280600981526020017f50697374616368696f000000000000000000000000000000000000000000000081525081526020016040518060400160405280600681526020017f436f66666565000000000000000000000000000000000000000000000000000081525081526020016040518060400160405280600681526020017f42616e616e61000000000000000000000000000000000000000000000000000081525081526020016040518060400160405280600681526020017f546f66666565000000000000000000000000000000000000000000000000000081525081526020016040518060400160405280600681526020017f5065616e7574000000000000000000000000000000000000000000000000000081525081526020016040518060400160405280600581526020017f4c656d6f6e00000000000000000000000000000000000000000000000000000081525081526020016040518060400160405280600581526020017f4d6f63686100000000000000000000000000000000000000000000000000000081525081526020016040518060400160405280600581526020017f506561636800000000000000000000000000000000000000000000000000000081525081526020016040518060400160405280600781526020017f5261696e626f770000000000000000000000000000000000000000000000000081525081526020016040518060400160405280600581526020017f4d616e676f00000000000000000000000000000000000000000000000000000081525081526020016040518060400160405280600981526020017f436865657363616b650000000000000000000000000000000000000000000000815250815250600b90600f6200076192919062000d50565b50604051806101e001604052806040518060400160405280600781526020017f476972616666650000000000000000000000000000000000000000000000000081525081526020016040518060400160405280600581526020017f5768616c6500000000000000000000000000000000000000000000000000000081525081526020016040518060400160405280600681526020017f416c70616361000000000000000000000000000000000000000000000000000081525081526020016040518060400160405280600381526020017f446f67000000000000000000000000000000000000000000000000000000000081525081526020016040518060400160405280600581526020017f4b6974747900000000000000000000000000000000000000000000000000000081525081526020016040518060400160405280600681526020017f536872696d70000000000000000000000000000000000000000000000000000081525081526020016040518060400160405280600781526020017f4f63746f7075730000000000000000000000000000000000000000000000000081525081526020016040518060400160405280600581526020017f5a6562726100000000000000000000000000000000000000000000000000000081525081526020016040518060400160405280600581526020017f4561676c6500000000000000000000000000000000000000000000000000000081525081526020016040518060400160405280600981526020017f4368616d656c656f6e000000000000000000000000000000000000000000000081525081526020016040518060400160405280600781526020017f4f7374726963680000000000000000000000000000000000000000000000000081525081526020016040518060400160405280600981526020017f41726d6164696c6c6f000000000000000000000000000000000000000000000081525081526020016040518060400160405280600381526020017f4f776c000000000000000000000000000000000000000000000000000000000081525081526020016040518060400160405280600781526020017f46697265666c790000000000000000000000000000000000000000000000000081525081526020016040518060400160405280600581526020017f4b6f616c61000000000000000000000000000000000000000000000000000000815250815250600c90600f62000af392919062000d50565b5034801562000b0157600080fd5b506040518060400160405280600981526020017f5371756172654e465400000000000000000000000000000000000000000000008152506040518060400160405280600681526020017f5351554152450000000000000000000000000000000000000000000000000000815250816000908051906020019062000b8692919062000cbf565b50806001908051906020019062000b9f92919062000cbf565b50505062000bed6040518060400160405280601781526020017f537570657220646f7065204e465420636f6e747261637400000000000000000081525062000bf360201b620012b81760201c565b62000f71565b62000c938160405160240162000c0a919062000e85565b6040516020818303038152906040527f41304fac000000000000000000000000000000000000000000000000000000007bffffffffffffffffffffffffffffffffffffffffffffffffffffffff19166020820180517bffffffffffffffffffffffffffffffffffffffffffffffffffffffff838183161783525050505062000c9660201b60201c565b50565b60008151905060006a636f6e736f6c652e6c6f679050602083016000808483855afa5050505050565b82805462000ccd9062000efb565b90600052602060002090601f01602090048101928262000cf1576000855562000d3d565b82601f1062000d0c57805160ff191683800117855562000d3d565b8280016001018555821562000d3d579182015b8281111562000d3c57825182559160200191906001019062000d1f565b5b50905062000d4c919062000db7565b5090565b82805482825590600052602060002090810192821562000da4579160200282015b8281111562000da357825182908051906020019062000d9292919062000cbf565b509160200191906001019062000d71565b5b50905062000db3919062000dd6565b5090565b5b8082111562000dd257600081600090555060010162000db8565b5090565b5b8082111562000dfa576000818162000df0919062000dfe565b5060010162000dd7565b5090565b50805462000e0c9062000efb565b6000825580601f1062000e20575062000e41565b601f01602090049060005260206000209081019062000e40919062000db7565b5b50565b600062000e518262000ea9565b62000e5d818562000eb4565b935062000e6f81856020860162000ec5565b62000e7a8162000f60565b840191505092915050565b6000602082019050818103600083015262000ea1818462000e44565b905092915050565b600081519050919050565b600082825260208201905092915050565b60005b8381101562000ee557808201518184015260208101905062000ec8565b8381111562000ef5576000848401525b50505050565b6000600282049050600182168062000f1457607f821691505b6020821081141562000f2b5762000f2a62000f31565b5b50919050565b7f4e487b7100000000000000000000000000000000000000000000000000000000600052602260045260246000fd5b6000601f19601f8301169050919050565b6139a88062000f816000396000f3fe608060405234801561001057600080fd5b50600436106101165760003560e01c806395d89b41116100a2578063b88d4fde11610071578063b88d4fde14610306578063c575757a14610322578063c87b56dd14610352578063de9d132f14610382578063e985e9c51461038c57610116565b806395d89b411461027d5780639dea84f41461029b578063a22cb465146102ba578063b187301f146102d657610116565b806323b872dd116100e957806323b872dd146101b55780632de38d68146101d157806342842e0e146102015780636352211e1461021d57806370a082311461024d57610116565b806301ffc9a71461011b57806306fdde031461014b578063081812fc14610169578063095ea7b314610199575b600080fd5b6101356004803603810190610130919061254b565b6103bc565b60405161014291906131d3565b60405180910390f35b61015361049e565b60405161016091906131ee565b60405180910390f35b610183600480360381019061017e919061259d565b610530565b6040516101909190613143565b60405180910390f35b6101b360048036038101906101ae919061250f565b6105b5565b005b6101cf60048036038101906101ca9190612409565b6106cd565b005b6101eb60048036038101906101e6919061259d565b61072d565b6040516101f891906131ee565b60405180910390f35b61021b60048036038101906102169190612409565b61084b565b005b6102376004803603810190610232919061259d565b61086b565b6040516102449190613143565b60405180910390f35b610267600480360381019061026291906123a4565b61091d565b604051610274919061346e565b60405180910390f35b6102856109d5565b60405161029291906131ee565b60405180910390f35b6102a3610a67565b6040516102b1929190613489565b60405180910390f35b6102d460048036038101906102cf91906124d3565b610a7f565b005b6102f060048036038101906102eb919061259d565b610c00565b6040516102fd91906131ee565b60405180910390f35b610320600480360381019061031b9190612458565b610d1e565b005b61033c6004803603810190610337919061259d565b610d80565b60405161034991906131ee565b60405180910390f35b61036c6004803603810190610367919061259d565b610e9e565b60405161037991906131ee565b60405180910390f35b61038a610ff0565b005b6103a660048036038101906103a191906123cd565b611224565b6040516103b391906131d3565b60405180910390f35b60007f80ac58cd000000000000000000000000000000000000000000000000000000007bffffffffffffffffffffffffffffffffffffffffffffffffffffffff1916827bffffffffffffffffffffffffffffffffffffffffffffffffffffffff1916148061048757507f5b5e139f000000000000000000000000000000000000000000000000000000007bffffffffffffffffffffffffffffffffffffffffffffffffffffffff1916827bffffffffffffffffffffffffffffffffffffffffffffffffffffffff1916145b80610497575061049682611351565b5b9050919050565b6060600080546104ad90613736565b80601f01602080910402602001604051908101604052809291908181526020018280546104d990613736565b80156105265780601f106104fb57610100808354040283529160200191610526565b820191906000526020600020905b81548152906001019060200180831161050957829003601f168201915b5050505050905090565b600061053b826113bb565b61057a576040517f08c379a0000000000000000000000000000000000000000000000000000000008152600401610571906133ce565b60405180910390fd5b6004600083815260200190815260200160002060009054906101000a900473ffffffffffffffffffffffffffffffffffffffff169050919050565b60006105c08261086b565b90508073ffffffffffffffffffffffffffffffffffffffff168373ffffffffffffffffffffffffffffffffffffffff161415610631576040517f08c379a00000000000000000000000000000000000000000000000000000000081526004016106289061342e565b60405180910390fd5b8073ffffffffffffffffffffffffffffffffffffffff16610650611427565b73ffffffffffffffffffffffffffffffffffffffff16148061067f575061067e81610679611427565b611224565b5b6106be576040517f08c379a00000000000000000000000000000000000000000000000000000000081526004016106b59061330e565b60405180910390fd5b6106c8838361142f565b505050565b6106de6106d8611427565b826114e8565b61071d576040517f08c379a00000000000000000000000000000000000000000000000000000000081526004016107149061344e565b60405180910390fd5b6107288383836115c6565b505050565b6060600061076161073d84611822565b60405160200161074d91906130ff565b6040516020818303038152906040526119cf565b9050600a805490508161077491906137b1565b9050600a81815481106107b0577f4e487b7100000000000000000000000000000000000000000000000000000000600052603260045260246000fd5b9060005260206000200180546107c590613736565b80601f01602080910402602001604051908101604052809291908181526020018280546107f190613736565b801561083e5780601f106108135761010080835404028352916020019161083e565b820191906000526020600020905b81548152906001019060200180831161082157829003601f168201915b5050505050915050919050565b61086683838360405180602001604052806000815250610d1e565b505050565b6000806002600084815260200190815260200160002060009054906101000a900473ffffffffffffffffffffffffffffffffffffffff169050600073ffffffffffffffffffffffffffffffffffffffff168173ffffffffffffffffffffffffffffffffffffffff161415610914576040517f08c379a000000000000000000000000000000000000000000000000000000000815260040161090b9061334e565b60405180910390fd5b80915050919050565b60008073ffffffffffffffffffffffffffffffffffffffff168273ffffffffffffffffffffffffffffffffffffffff16141561098e576040517f08c379a00000000000000000000000000000000000000000000000000000000081526004016109859061332e565b60405180910390fd5b600360008373ffffffffffffffffffffffffffffffffffffffff1673ffffffffffffffffffffffffffffffffffffffff168152602001908152602001600020549050919050565b6060600180546109e490613736565b80601f0160208091040260200160405190810160405280929190818152602001828054610a1090613736565b8015610a5d5780601f10610a3257610100808354040283529160200191610a5d565b820191906000526020600020905b815481529060010190602001808311610a4057829003601f168201915b5050505050905090565b600080610a746007611a02565b600854915091509091565b610a87611427565b73ffffffffffffffffffffffffffffffffffffffff168273ffffffffffffffffffffffffffffffffffffffff161415610af5576040517f08c379a0000000000000000000000000000000000000000000000000000000008152600401610aec906132ae565b60405180910390fd5b8060056000610b02611427565b73ffffffffffffffffffffffffffffffffffffffff1673ffffffffffffffffffffffffffffffffffffffff16815260200190815260200160002060008473ffffffffffffffffffffffffffffffffffffffff1673ffffffffffffffffffffffffffffffffffffffff16815260200190815260200160002060006101000a81548160ff0219169083151502179055508173ffffffffffffffffffffffffffffffffffffffff16610baf611427565b73ffffffffffffffffffffffffffffffffffffffff167f17307eab39ab6107e8899845ad3d59bd9653f200f220920489ca2b5937696c3183604051610bf491906131d3565b60405180910390a35050565b60606000610c34610c1084611822565b604051602001610c209190613098565b6040516020818303038152906040526119cf565b9050600b8054905081610c4791906137b1565b9050600b8181548110610c83577f4e487b7100000000000000000000000000000000000000000000000000000000600052603260045260246000fd5b906000526020600020018054610c9890613736565b80601f0160208091040260200160405190810160405280929190818152602001828054610cc490613736565b8015610d115780601f10610ce657610100808354040283529160200191610d11565b820191906000526020600020905b815481529060010190602001808311610cf457829003601f168201915b5050505050915050919050565b610d2f610d29611427565b836114e8565b610d6e576040517f08c379a0000000000000000000000000000000000000000000000000000000008152600401610d659061344e565b60405180910390fd5b610d7a84848484611a10565b50505050565b60606000610db4610d9084611822565b604051602001610da09190613076565b6040516020818303038152906040526119cf565b9050600c8054905081610dc791906137b1565b9050600c8181548110610e03577f4e487b7100000000000000000000000000000000000000000000000000000000600052603260045260246000fd5b906000526020600020018054610e1890613736565b80601f0160208091040260200160405190810160405280929190818152602001828054610e4490613736565b8015610e915780601f10610e6657610100808354040283529160200191610e91565b820191906000526020600020905b815481529060010190602001808311610e7457829003601f168201915b5050505050915050919050565b6060610ea9826113bb565b610ee8576040517f08c379a0000000000000000000000000000000000000000000000000000000008152600401610edf906133ae565b60405180910390fd5b6000600660008481526020019081526020016000208054610f0890613736565b80601f0160208091040260200160405190810160405280929190818152602001828054610f3490613736565b8015610f815780601f10610f5657610100808354040283529160200191610f81565b820191906000526020600020905b815481529060010190602001808311610f6457829003601f168201915b505050505090506000610f92611a6c565b9050600081511415610fa8578192505050610feb565b600082511115610fdd578082604051602001610fc5929190612ff2565b60405160208183030381529060405292505050610feb565b610fe684611a83565b925050505b919050565b600854610ffd6007611a02565b1061103d576040517f08c379a0000000000000000000000000000000000000000000000000000000008152600401611034906132ee565b60405180910390fd5b60006110496007611a02565b905060006110568261072d565b9050600061106383610c00565b9050600061107084610d80565b9050600083838360405160200161108993929190613016565b604051602081830303815290604052905060006009826040516020016110b0929190613047565b604051602081830303815290604052905060006110f5836110d084611b2a565b6040516020016110e19291906130ba565b604051602081830303815290604052611b2a565b905060008160405160200161110a9190613121565b60405160208183030381529060405290506111596040518060400160405280601481526020017f0a2d2d2d2d2d2d2d2d2d2d2d2d2d2d2d2d2d2d2d0000000000000000000000008152506112b8565b611162816112b8565b6111a06040518060400160405280601481526020017f2d2d2d2d2d2d2d2d2d2d2d2d2d2d2d2d2d2d2d0a0000000000000000000000008152506112b8565b6111aa3389611ce8565b6111b48882611d06565b6111be6007611d7a565b6111e160405180606001604052806027815260200161394c602791398933611d90565b7febb98688741ffa4c7589bf325de30cf7becb63de567842e1ccdb6cb949fdc82c33896040516112129291906131aa565b60405180910390a15050505050505050565b6000600560008473ffffffffffffffffffffffffffffffffffffffff1673ffffffffffffffffffffffffffffffffffffffff16815260200190815260200160002060008373ffffffffffffffffffffffffffffffffffffffff1673ffffffffffffffffffffffffffffffffffffffff16815260200190815260200160002060009054906101000a900460ff16905092915050565b61134e816040516024016112cc91906131ee565b6040516020818303038152906040527f41304fac000000000000000000000000000000000000000000000000000000007bffffffffffffffffffffffffffffffffffffffffffffffffffffffff19166020820180517bffffffffffffffffffffffffffffffffffffffffffffffffffffffff8381831617835250505050611e2f565b50565b60007f01ffc9a7000000000000000000000000000000000000000000000000000000007bffffffffffffffffffffffffffffffffffffffffffffffffffffffff1916827bffffffffffffffffffffffffffffffffffffffffffffffffffffffff1916149050919050565b60008073ffffffffffffffffffffffffffffffffffffffff166002600084815260200190815260200160002060009054906101000a900473ffffffffffffffffffffffffffffffffffffffff1673ffffffffffffffffffffffffffffffffffffffff1614159050919050565b600033905090565b816004600083815260200190815260200160002060006101000a81548173ffffffffffffffffffffffffffffffffffffffff021916908373ffffffffffffffffffffffffffffffffffffffff160217905550808273ffffffffffffffffffffffffffffffffffffffff166114a28361086b565b73ffffffffffffffffffffffffffffffffffffffff167f8c5be1e5ebec7d5bd14f71427d1e84f3dd0314c0f7b2291e5b200ac8c7c3b92560405160405180910390a45050565b60006114f3826113bb565b611532576040517f08c379a0000000000000000000000000000000000000000000000000000000008152600401611529906132ce565b60405180910390fd5b600061153d8361086b565b90508073ffffffffffffffffffffffffffffffffffffffff168473ffffffffffffffffffffffffffffffffffffffff1614806115ac57508373ffffffffffffffffffffffffffffffffffffffff1661159484610530565b73ffffffffffffffffffffffffffffffffffffffff16145b806115bd57506115bc8185611224565b5b91505092915050565b8273ffffffffffffffffffffffffffffffffffffffff166115e68261086b565b73ffffffffffffffffffffffffffffffffffffffff161461163c576040517f08c379a0000000000000000000000000000000000000000000000000000000008152600401611633906133ee565b60405180910390fd5b600073ffffffffffffffffffffffffffffffffffffffff168273ffffffffffffffffffffffffffffffffffffffff1614156116ac576040517f08c379a00000000000000000000000000000000000000000000000000000000081526004016116a39061328e565b60405180910390fd5b6116b7838383611e58565b6116c260008261142f565b6001600360008573ffffffffffffffffffffffffffffffffffffffff1673ffffffffffffffffffffffffffffffffffffffff1681526020019081526020016000206000828254611712919061364c565b925050819055506001600360008473ffffffffffffffffffffffffffffffffffffffff1673ffffffffffffffffffffffffffffffffffffffff1681526020019081526020016000206000828254611769919061356b565b92505081905550816002600083815260200190815260200160002060006101000a81548173ffffffffffffffffffffffffffffffffffffffff021916908373ffffffffffffffffffffffffffffffffffffffff160217905550808273ffffffffffffffffffffffffffffffffffffffff168473ffffffffffffffffffffffffffffffffffffffff167fddf252ad1be2c89b69c2b068fc378daa952ba7f163c4a11628f55a4df523b3ef60405160405180910390a4505050565b6060600082141561186a576040518060400160405280600181526020017f300000000000000000000000000000000000000000000000000000000000000081525090506119ca565b600082905060005b6000821461189c57808061188590613768565b915050600a8261189591906135c1565b9150611872565b60008167ffffffffffffffff8111156118de577f4e487b7100000000000000000000000000000000000000000000000000000000600052604160045260246000fd5b6040519080825280601f01601f1916602001820160405280156119105781602001600182028036833780820191505090505b5090505b600085146119c357600182611929919061364c565b9150600a8561193891906137b1565b6030611944919061356b565b60f81b818381518110611980577f4e487b7100000000000000000000000000000000000000000000000000000000600052603260045260246000fd5b60200101907effffffffffffffffffffffffffffffffffffffffffffffffffffffffffffff1916908160001a905350600a856119bc91906135c1565b9450611914565b8093505050505b919050565b6000816040516020016119e29190612fdb565b6040516020818303038152906040528051906020012060001c9050919050565b600081600001549050919050565b611a1b8484846115c6565b611a2784848484611e5d565b611a66576040517f08c379a0000000000000000000000000000000000000000000000000000000008152600401611a5d9061324e565b60405180910390fd5b50505050565b606060405180602001604052806000815250905090565b6060611a8e826113bb565b611acd576040517f08c379a0000000000000000000000000000000000000000000000000000000008152600401611ac49061340e565b60405180910390fd5b6000611ad7611a6c565b90506000815111611af75760405180602001604052806000815250611b22565b80611b0184611822565b604051602001611b12929190612ff2565b6040516020818303038152906040525b915050919050565b60606000825190506000811415611b535760405180602001604052806000815250915050611ce3565b60006003600283611b64919061356b565b611b6e91906135c1565b6004611b7a91906135f2565b90506000602082611b8b919061356b565b67ffffffffffffffff811115611bca577f4e487b7100000000000000000000000000000000000000000000000000000000600052604160045260246000fd5b6040519080825280601f01601f191660200182016040528015611bfc5781602001600182028036833780820191505090505b509050600060405180606001604052806040815260200161390c604091399050600181016020830160005b86811015611ca05760038101905062ffffff818a015116603f8160121c168401518060081b905060ff603f83600c1c1686015116810190508060081b905060ff603f8360061c1686015116810190508060081b905060ff603f831686015116810190508060e01b90508084526004840193505050611c27565b506003860660018114611cba5760028114611cca57611cd5565b613d3d60f01b6002830352611cd5565b603d60f81b60018303525b508484525050819450505050505b919050565b611d02828260405180602001604052806000815250611ff4565b5050565b611d0f826113bb565b611d4e576040517f08c379a0000000000000000000000000000000000000000000000000000000008152600401611d459061336e565b60405180910390fd5b80600660008481526020019081526020016000209080519060200190611d75929190612230565b505050565b6001816000016000828254019250508190555050565b611e2a838383604051602401611da893929190613210565b6040516020818303038152906040527fe3849f79000000000000000000000000000000000000000000000000000000007bffffffffffffffffffffffffffffffffffffffffffffffffffffffff19166020820180517bffffffffffffffffffffffffffffffffffffffffffffffffffffffff8381831617835250505050611e2f565b505050565b60008151905060006a636f6e736f6c652e6c6f679050602083016000808483855afa5050505050565b505050565b6000611e7e8473ffffffffffffffffffffffffffffffffffffffff1661204f565b15611fe7578373ffffffffffffffffffffffffffffffffffffffff1663150b7a02611ea7611427565b8786866040518563ffffffff1660e01b8152600401611ec9949392919061315e565b602060405180830381600087803b158015611ee357600080fd5b505af1925050508015611f1457506040513d601f19601f82011682018060405250810190611f119190612574565b60015b611f97573d8060008114611f44576040519150601f19603f3d011682016040523d82523d6000602084013e611f49565b606091505b50600081511415611f8f576040517f08c379a0000000000000000000000000000000000000000000000000000000008152600401611f869061324e565b60405180910390fd5b805181602001fd5b63150b7a0260e01b7bffffffffffffffffffffffffffffffffffffffffffffffffffffffff1916817bffffffffffffffffffffffffffffffffffffffffffffffffffffffff191614915050611fec565b600190505b949350505050565b611ffe8383612062565b61200b6000848484611e5d565b61204a576040517f08c379a00000000000000000000000000000000000000000000000000000000081526004016120419061324e565b60405180910390fd5b505050565b600080823b905060008111915050919050565b600073ffffffffffffffffffffffffffffffffffffffff168273ffffffffffffffffffffffffffffffffffffffff1614156120d2576040517f08c379a00000000000000000000000000000000000000000000000000000000081526004016120c99061338e565b60405180910390fd5b6120db816113bb565b1561211b576040517f08c379a00000000000000000000000000000000000000000000000000000000081526004016121129061326e565b60405180910390fd5b61212760008383611e58565b6001600360008473ffffffffffffffffffffffffffffffffffffffff1673ffffffffffffffffffffffffffffffffffffffff1681526020019081526020016000206000828254612177919061356b565b92505081905550816002600083815260200190815260200160002060006101000a81548173ffffffffffffffffffffffffffffffffffffffff021916908373ffffffffffffffffffffffffffffffffffffffff160217905550808273ffffffffffffffffffffffffffffffffffffffff16600073ffffffffffffffffffffffffffffffffffffffff167fddf252ad1be2c89b69c2b068fc378daa952ba7f163c4a11628f55a4df523b3ef60405160405180910390a45050565b82805461223c90613736565b90600052602060002090601f01602090048101928261225e57600085556122a5565b82601f1061227757805160ff19168380011785556122a5565b828001600101855582156122a5579182015b828111156122a4578251825591602001919060010190612289565b5b5090506122b291906122b6565b5090565b5b808211156122cf5760008160009055506001016122b7565b5090565b60006122e66122e1846134e3565b6134b2565b9050828152602081018484840111156122fe57600080fd5b6123098482856136f4565b509392505050565b600081359050612320816138af565b92915050565b600081359050612335816138c6565b92915050565b60008135905061234a816138dd565b92915050565b60008151905061235f816138dd565b92915050565b600082601f83011261237657600080fd5b81356123868482602086016122d3565b91505092915050565b60008135905061239e816138f4565b92915050565b6000602082840312156123b657600080fd5b60006123c484828501612311565b91505092915050565b600080604083850312156123e057600080fd5b60006123ee85828601612311565b92505060206123ff85828601612311565b9150509250929050565b60008060006060848603121561241e57600080fd5b600061242c86828701612311565b935050602061243d86828701612311565b925050604061244e8682870161238f565b9150509250925092565b6000806000806080858703121561246e57600080fd5b600061247c87828801612311565b945050602061248d87828801612311565b935050604061249e8782880161238f565b925050606085013567ffffffffffffffff8111156124bb57600080fd5b6124c787828801612365565b91505092959194509250565b600080604083850312156124e657600080fd5b60006124f485828601612311565b925050602061250585828601612326565b9150509250929050565b6000806040838503121561252257600080fd5b600061253085828601612311565b92505060206125418582860161238f565b9150509250929050565b60006020828403121561255d57600080fd5b600061256b8482850161233b565b91505092915050565b60006020828403121561258657600080fd5b600061259484828501612350565b91505092915050565b6000602082840312156125af57600080fd5b60006125bd8482850161238f565b91505092915050565b6125cf81613680565b82525050565b6125de81613692565b82525050565b60006125ef82613528565b6125f9818561353e565b9350612609818560208601613703565b6126128161389e565b840191505092915050565b600061262882613533565b612632818561354f565b9350612642818560208601613703565b61264b8161389e565b840191505092915050565b600061266182613533565b61266b8185613560565b935061267b818560208601613703565b80840191505092915050565b6000815461269481613736565b61269e8186613560565b945060018216600081146126b957600181146126ca576126fd565b60ff198316865281860193506126fd565b6126d385613513565b60005b838110156126f5578154818901526001820191506020810190506126d6565b838801955050505b50505092915050565b600061271360328361354f565b91507f4552433732313a207472616e7366657220746f206e6f6e20455243373231526560008301527f63656976657220696d706c656d656e74657200000000000000000000000000006020830152604082019050919050565b6000612779601c8361354f565b91507f4552433732313a20746f6b656e20616c7265616479206d696e746564000000006000830152602082019050919050565b60006127b9600a83613560565b91507f54484952445f574f5244000000000000000000000000000000000000000000006000830152600a82019050919050565b60006127f960248361354f565b91507f4552433732313a207472616e7366657220746f20746865207a65726f2061646460008301527f72657373000000000000000000000000000000000000000000000000000000006020830152604082019050919050565b600061285f60198361354f565b91507f4552433732313a20617070726f766520746f2063616c6c6572000000000000006000830152602082019050919050565b600061289f606383613560565b91507f222c20226465736372697074696f6e223a20224120686967686c79206163636c60008301527f61696d656420636f6c6c656374696f6e206f6620737175617265732e222c202260208301527f696d616765223a2022646174613a696d6167652f7376672b786d6c3b6261736560408301527f36342c00000000000000000000000000000000000000000000000000000000006060830152606382019050919050565b6000612951600b83613560565b91507f5345434f4e445f574f52440000000000000000000000000000000000000000006000830152600b82019050919050565b6000612991602c8361354f565b91507f4552433732313a206f70657261746f7220717565727920666f72206e6f6e657860008301527f697374656e7420746f6b656e00000000000000000000000000000000000000006020830152604082019050919050565b60006129f7600d83613560565b91507f3c2f746578743e3c2f7376673e000000000000000000000000000000000000006000830152600d82019050919050565b6000612a3760298361354f565b91507f416c7265616479206d696e7465642074686520616c6c6f776564206e756d626560008301527f72206f66204e46547300000000000000000000000000000000000000000000006020830152604082019050919050565b6000612a9d60388361354f565b91507f4552433732313a20617070726f76652063616c6c6572206973206e6f74206f7760008301527f6e6572206e6f7220617070726f76656420666f7220616c6c00000000000000006020830152604082019050919050565b6000612b03602a8361354f565b91507f4552433732313a2062616c616e636520717565727920666f7220746865207a6560008301527f726f2061646472657373000000000000000000000000000000000000000000006020830152604082019050919050565b6000612b6960298361354f565b91507f4552433732313a206f776e657220717565727920666f72206e6f6e657869737460008301527f656e7420746f6b656e00000000000000000000000000000000000000000000006020830152604082019050919050565b6000612bcf602e8361354f565b91507f45524337323155524953746f726167653a2055524920736574206f66206e6f6e60008301527f6578697374656e7420746f6b656e0000000000000000000000000000000000006020830152604082019050919050565b6000612c35600283613560565b91507f227d0000000000000000000000000000000000000000000000000000000000006000830152600282019050919050565b6000612c7560208361354f565b91507f4552433732313a206d696e7420746f20746865207a65726f20616464726573736000830152602082019050919050565b6000612cb560318361354f565b91507f45524337323155524953746f726167653a2055524920717565727920666f722060008301527f6e6f6e6578697374656e7420746f6b656e0000000000000000000000000000006020830152604082019050919050565b6000612d1b602c8361354f565b91507f4552433732313a20617070726f76656420717565727920666f72206e6f6e657860008301527f697374656e7420746f6b656e00000000000000000000000000000000000000006020830152604082019050919050565b6000612d8160298361354f565b91507f4552433732313a207472616e73666572206f6620746f6b656e2074686174206960008301527f73206e6f74206f776e00000000000000000000000000000000000000000000006020830152604082019050919050565b6000612de7602f8361354f565b91507f4552433732314d657461646174613a2055524920717565727920666f72206e6f60008301527f6e6578697374656e7420746f6b656e00000000000000000000000000000000006020830152604082019050919050565b6000612e4d600a83613560565b91507f7b226e616d65223a2022000000000000000000000000000000000000000000006000830152600a82019050919050565b6000612e8d60218361354f565b91507f4552433732313a20617070726f76616c20746f2063757272656e74206f776e6560008301527f72000000000000000000000000000000000000000000000000000000000000006020830152604082019050919050565b6000612ef3600a83613560565b91507f46495253545f574f5244000000000000000000000000000000000000000000006000830152600a82019050919050565b6000612f33601d83613560565b91507f646174613a6170706c69636174696f6e2f6a736f6e3b6261736536342c0000006000830152601d82019050919050565b6000612f7360318361354f565b91507f4552433732313a207472616e736665722063616c6c6572206973206e6f74206f60008301527f776e6572206e6f7220617070726f7665640000000000000000000000000000006020830152604082019050919050565b612fd5816136ea565b82525050565b6000612fe78284612656565b915081905092915050565b6000612ffe8285612656565b915061300a8284612656565b91508190509392505050565b60006130228286612656565b915061302e8285612656565b915061303a8284612656565b9150819050949350505050565b60006130538285612687565b915061305f8284612656565b915061306a826129ea565b91508190509392505050565b6000613081826127ac565b915061308d8284612656565b915081905092915050565b60006130a382612944565b91506130af8284612656565b915081905092915050565b60006130c582612e40565b91506130d18285612656565b91506130dc82612892565b91506130e88284612656565b91506130f382612c28565b91508190509392505050565b600061310a82612ee6565b91506131168284612656565b915081905092915050565b600061312c82612f26565b91506131388284612656565b915081905092915050565b600060208201905061315860008301846125c6565b92915050565b600060808201905061317360008301876125c6565b61318060208301866125c6565b61318d6040830185612fcc565b818103606083015261319f81846125e4565b905095945050505050565b60006040820190506131bf60008301856125c6565b6131cc6020830184612fcc565b9392505050565b60006020820190506131e860008301846125d5565b92915050565b60006020820190508181036000830152613208818461261d565b905092915050565b6000606082019050818103600083015261322a818661261d565b90506132396020830185612fcc565b61324660408301846125c6565b949350505050565b6000602082019050818103600083015261326781612706565b9050919050565b600060208201905081810360008301526132878161276c565b9050919050565b600060208201905081810360008301526132a7816127ec565b9050919050565b600060208201905081810360008301526132c781612852565b9050919050565b600060208201905081810360008301526132e781612984565b9050919050565b6000602082019050818103600083015261330781612a2a565b9050919050565b6000602082019050818103600083015261332781612a90565b9050919050565b6000602082019050818103600083015261334781612af6565b9050919050565b6000602082019050818103600083015261336781612b5c565b9050919050565b6000602082019050818103600083015261338781612bc2565b9050919050565b600060208201905081810360008301526133a781612c68565b9050919050565b600060208201905081810360008301526133c781612ca8565b9050919050565b600060208201905081810360008301526133e781612d0e565b9050919050565b6000602082019050818103600083015261340781612d74565b9050919050565b6000602082019050818103600083015261342781612dda565b9050919050565b6000602082019050818103600083015261344781612e80565b9050919050565b6000602082019050818103600083015261346781612f66565b9050919050565b60006020820190506134836000830184612fcc565b92915050565b600060408201905061349e6000830185612fcc565b6134ab6020830184612fcc565b9392505050565b6000604051905081810181811067ffffffffffffffff821117156134d9576134d861386f565b5b8060405250919050565b600067ffffffffffffffff8211156134fe576134fd61386f565b5b601f19601f8301169050602081019050919050565b60008190508160005260206000209050919050565b600081519050919050565b600081519050919050565b600082825260208201905092915050565b600082825260208201905092915050565b600081905092915050565b6000613576826136ea565b9150613581836136ea565b9250827fffffffffffffffffffffffffffffffffffffffffffffffffffffffffffffffff038211156135b6576135b56137e2565b5b828201905092915050565b60006135cc826136ea565b91506135d7836136ea565b9250826135e7576135e6613811565b5b828204905092915050565b60006135fd826136ea565b9150613608836136ea565b9250817fffffffffffffffffffffffffffffffffffffffffffffffffffffffffffffffff0483118215151615613641576136406137e2565b5b828202905092915050565b6000613657826136ea565b9150613662836136ea565b925082821015613675576136746137e2565b5b828203905092915050565b600061368b826136ca565b9050919050565b60008115159050919050565b60007fffffffff0000000000000000000000000000000000000000000000000000000082169050919050565b600073ffffffffffffffffffffffffffffffffffffffff82169050919050565b6000819050919050565b82818337600083830152505050565b60005b83811015613721578082015181840152602081019050613706565b83811115613730576000848401525b50505050565b6000600282049050600182168061374e57607f821691505b6020821081141561376257613761613840565b5b50919050565b6000613773826136ea565b91507fffffffffffffffffffffffffffffffffffffffffffffffffffffffffffffffff8214156137a6576137a56137e2565b5b600182019050919050565b60006137bc826136ea565b91506137c7836136ea565b9250826137d7576137d6613811565b5b828206905092915050565b7f4e487b7100000000000000000000000000000000000000000000000000000000600052601160045260246000fd5b7f4e487b7100000000000000000000000000000000000000000000000000000000600052601260045260246000fd5b7f4e487b7100000000000000000000000000000000000000000000000000000000600052602260045260246000fd5b7f4e487b7100000000000000000000000000000000000000000000000000000000600052604160045260246000fd5b6000601f19601f8301169050919050565b6138b881613680565b81146138c357600080fd5b50565b6138cf81613692565b81146138da57600080fd5b50565b6138e68161369e565b81146138f157600080fd5b50565b6138fd816136ea565b811461390857600080fd5b5056fe4142434445464748494a4b4c4d4e4f505152535455565758595a6162636465666768696a6b6c6d6e6f707172737475767778797a303132333435363738392b2f416e204e4654207769746820696420257320686173206265656e206d696e74656420746f202573a26469706673582212208cbc9f3fddbe660c728a4171aa026351e12440e7652b20179001d259e95698cf64736f6c634300080000333c73766720786d6c6e733d27687474703a2f2f7777772e77332e6f72672f323030302f73766727207072657365727665417370656374526174696f3d27784d696e594d696e206d656574272076696577426f783d273020302033353020333530273e3c7374796c653e2e62617365207b2066696c6c3a2077686974653b20666f6e742d66616d696c793a2073657269663b20666f6e742d73697a653a20323470783b207d3c2f7374796c653e3c726563742077696474683d273130302527206865696768743d2731303025272066696c6c3d27626c61636b27202f3e3c7465787420783d273530252720793d273530252720636c6173733d27626173652720646f6d696e616e742d626173656c696e653d276d6964646c652720746578742d616e63686f723d276d6964646c65273e",
  "linkReferences": {},
  "deployedLinkReferences": {}
}